S01900004763634170706C69636174696F6E4370702E7372656367
S11300000C9435000C945D000C945D000C945D0020
S11300100C945D000C945D000C945D000C945D00E8
S11300200C945D000C945D000C945D000C945D00D8
S11300300C945D000C945D000C945D000C945D00C8
S11300400C9474030C945D000C9491010C94C901FC
S11300500C945D000C945D000C945D000C945D00A8
S11300600C945D000C945D00EF0111241FBECFEFD2
S1130070D8E0DEBFCDBF11E0A0E0B1E0E8E3FBE0F3
S113008002C005900D92A637B107D9F722E0A6E782
S1130090B1E001C01D92A232B207E1F710E0C5E35E
S11300A0D0E004C02197FE010E949405C433D10717
S11300B0C9F70E949E030C949A050C940000FC015D
S11300C0918D228D892F90E0805C9F4F821B910936
S11300D08F7399270895FC01918D828D981731F0C3
S11300E0828DE80FF11D858D90E008958FEF9FEFCD
S11300F00895FC01918D828D981761F0828DDF0146
S1130100A80FB11D5D968C91928D9F5F9F73928F06
S113011090E008958FEF9FEF0895FC01848DDF0137
S1130120A80FB11DA35ABF4F8C91248D30E02F5FCF
S11301303F4F2F733078332334F421503109206C2E
S11301403F6F2F5F3F4F248FA689B7898C93A08977
S1130150B1898C9180648C93938D848D981306C09F
S11301600288F389E02D80818F7D80830895CF9369
S1130170DF93EC01888D81110FC018C00FB607FC06
S11301800DC0908195FF0AC0A889B9898C9185FF1B
S113019005C0CE010E948D00EA89FB89908195FDFE
S11301A0EDCFA889B9898C9186FFE8CFDF91CF91F3
S11301B008950F931F93CF93DF93FC0181E0808F09
S11301C0938D848D981322C0A089B1898C9185FD6B
S11301D02FC01CC00FB607FC08C0E889F9898081CC
S11301E085FF03C0CE010E948D009C8D091791F3F9
S11301F08B8DFE01E80FF11DE35AFF4F10830B8F27
S1130200EA89FB898081806280831BC0238D30E072
S11302102F5F3F4F2F733078332334F4215031094B
S1130220206C3F6F2F5F3F4F162FEF01022FDDCF62
S1130230A689B7896C930088F189E02D8081806458
S1130240808381E090E0DF91CF911F910F91089519
S1130250BF92CF92DF92EF92FF920F931F93CF93AF
S1130260DF93EC016A017B01B22EE889F98982E00F
S113027080834115514E61057105B1F060E079E06C
S11302808DE390E0A70196010E94720589019A010D
S113029001501109210931093695279517950795BC
S11302A0011580E11807A8F0E889F989108260E84F
S11302B074E88EE190E0A70196010E947205DA01CC
S11302C0C9010197A109B109B695A7959795879595
S11302D08C01EC85FD851083EE85FF850083188EE7
S11302E0EC89FD89B082EA89FB8980818061808301
S11302F0EA89FB89808188608083EA89FB8980811F
S113030080688083EA89FB8980818F7D8083DF9187
S1130310CF911F910F91FF90EF90DF90CF90BF90FE
S113032008951F920F920FB60F9211242F938F935B
S11303309F93AF93BF93EF93FF93E0918601F09166
S11303408701808182FD14C0E6E7F1E0A689B789C0
S11303502C91818D8F5F8F73928D891771F0DF01DE
S1130360E18DF0E0EA58FE4F258F59968C9305C035
S1130370E0918C01F0918D018081FF91EF91BF910B
S1130380AF919F918F912F910F900FBE0F901F905F
S113039018951F920F920FB60F9211242F933F932B
S11303A04F935F936F937F938F939F93AF93BF9379
S11303B0EF93FF9386E791E00E948D00FF91EF9108
S11303C0BF91AF919F918F917F916F915F914F9169
S11303D03F912F910F900FBE0F901F901895E6E755
S11303E0F1E01382128288EE93E0A0E0B0E084830F
S11303F09583A683B78389E691E09183808385EC16
S113040090E09587848784EC90E09787868780ECDA
S113041090E0918B808B81EC90E0938B828B82ECCB
S113042090E0958B848B86EC90E0978B868B118E75
S1130430128E138E148E0895CF92DF92EF92FF9254
S11304400F931F93CF93DF9341155105B1F08C01A6
S1130450E62EF72EEA01C12CD12CD7016D917D0136
S1130460D801ED91FC910190F081E02DC80109952E
S1130470C80ED91E219789F702C0C12CD12CC60100
S1130480DF91CF911F910F91FF90EF90DF90CF906C
S113049008958FE385B914B899E398B987B98CE7BF
S11304A08BB980E78AB9089584B18A6284B92D9A98
S11304B02B9A299A80E00E94A90208952B9A299ADE
S11304C05D9A2D9A439A5C9A5E9A0895613091F4EC
S11304D090E0FC01EE0FFF1FEE0FFF1F8E0F9F1F1A
S11304E0FC01E050FF4FA081B1819C918481892B54
S11304F08C930895611112C090E0FC01EE0FFF1F70
S1130500EE0FFF1F8E0F9F1FFC01E050FF4FA081D5
S1130510B1819C918481809589238C93089590E086
S1130520FC01EE0FFF1FEE0FFF1F8E0F9F1FFC013C
S1130530E050FF4FA281B3819C912481922381E0FA
S1130540291380E008958EBD0DB407FCFDCF8EB550
S113055008950F931F93CF93DF93F89485E00E943F
S11305608F02D82F813029F5CEE024C060E085E0E9
S11305700E9466028AE08A95F1F700C0000F111FFD
S113058061E085E00E9466028AE08A95F1F700C086
S113059084E00E948F02813009F40160C15031F778
S11305A06D2F85E00E9466027894C801809590952D
S11305B004C0CFE00FEF1FEFD9CFDF91CF911F9190
S11305C00F9108951F93CF93DF93182F892F6111F3
S11305D00FC02A9A0E94A302C82FD0E0DC2FCC2798
S11305E0812F0E94A3029E01282BC9012A980EC0C4
S11305F0449A0E94A302C82FD0E0DC2FCC27812F7D
S11306000E94A3029E01282BC9014498DF91CF9137
S11306101F910895CF93DF931F92CDB7DEB7198250
S11306205C98EFE8F1E03197F1F700C000009981A0
S1130630981780F45E985C98F0E2FA95F1F75E9A68
S11306405C9A90E69A95F1F799819F5F99839981D5
S1130650981780F35C9A0F90DF91CF910895449896
S113066087EC90E00197F1F700C00000449A0895E8
S11306705C985D988FE891E00197F1F700C0000065
S113068082E05E9AEFE8F1E03197F1F700C00000F4
S1130690299AEFE8F1E03197F1F700C000005E9885
S11306A0EFE8F1E03197F1F700C000002998EFE896
S11306B0F1E03197F1F700C00000815011F75C9A26
S11306C05D9A08955D982FEF89EF90E02150804066
S11306D09040E1F700C000005D9A0895811102C0C6
S11306E040980895409A08951F920F920FB60F9262
S11306F011248F939F93AF93BF93809114028F5FC4
S1130700809314028091150290911602A091170211
S1130710B09118020196A11DB11D8093150290930A
S11307201602A0931702B0931802BF91AF919F9144
S11307308F910F900FBE0F901F9018951092150275
S11307401092160210921702109218020E94490287
S11307500E94D903789426E040E052EC61E070E016
S113076086E791E00E9428018CE787BD83E084BD81
S11307708DE085BD81E080936E0095B180E289278C
S113078085B912C080911402815080931402809123
S1130790130291E0980F1AF09093130203C08F573D
S11307A0809313020E942C05809114028111EACFD8
S11307B0FBCFEAE1F2E010821182128213820895E3
S11307C01F93CF93DF9320911E02213209F491C02D
S11307D040F4203131F1203209F442C0211138C1F2
S11307E00AC0203409F4E0C0203609F419C12033CA
S11307F009F02EC1A7C0EAE1F2E0108281E0818312
S113080012821382E0917601F09177010280F381E4
S1130810E02D44E050E06AE172E086E791E009955A
S113082017C180911F0280936401823010F40E94EA
S11308305402EAE1F2E080E1808381E08183128264
S11308401382E0917601F09177010280F381E02D2B
S113085044E050E06AE172E086E791E00995F8C06F
S1130860EEE1F2E0D181C38190E290931A0291E02B
S1130870209164012F3F09F490E090931B02EAE178
S1130880F2E012821382E0917601F0917701028006
S1130890F381E02D44E050E06AE172E086E791E004
S11308A00995909164019F3F09F4D2C0D1111CC0F5
S11308B0C13059F028F0C23069F0C33081F0C8C0AB
S11308C0F8942D982B987894C3C0F8942D982B9A6B
S11308D07894BEC0F8942D9A2B987894B9C0F89463
S11308E02D9A2B9A7894B4C06C2F8D2F0E94660297
S11308F0AFC0C0911F02809164018F3F21F08C2F03
S11309000E948F0201C080E080931D0281E09091DB
S113091064019F3F09F480E080931B02EAE1F2E066
S113092081E28083C283E0917601F09177010280B5
S1130930F381E02D44E050E06AE172E086E791E063
S1130940099586C0EEE1F2E042813381618120E3C2
S113095020931A02209164012F3FA9F0223020F441
S113096080E00E94A90208C02058223028F4832F76
S113097090E0942B0E94E202EAE1F2E021E021837C
S11309809283838302C010921B02E0917601F0915E
S113099077010280F381E02D44E050E06AE172E0E7
S11309A086E791E0099554C0EEE1F2E0C18112813D
S11309B0D381EAE1F2E090E4908391E091831282A2
S11309C01382E0917601F09177010280F381E02DAA
S11309D044E050E06AE172E086E791E00995C230B4
S11309E059F028F4CC2391F0C13049F016C0C3303B
S11309F049F0C43079F011C00E94620329C00E94FA
S1130A00380326C0812F0E946E0322C08D2F0E94BE
S1130A100A031EC00E942F031BC0419A429A18C0A9
S1130A20EAE1F2E080E6808381E08183128213822E
S1130A30E0917601F09177010280F381E02D44E0AA
S1130A4050E06AE172E086E791E009950E945E0257
S1130A50DF91CF911F910895CF93DF9386E791E0C3
S1130A600E945F000497CCF086E791E00E94790031
S1130A70CEE1D2E0888386E791E00E947900898301
S1130A8086E791E00E9479008A8386E791E00E94DC
S1130A9079008B830E94E00310C086E791E00E94F6
S1130AA05F001816190634F4809119028F5F809341
S1130AB0190203C01092190212C0809119028032E7
S1130AC028F40DC086E791E00E94790086E791E062
S1130AD00E945F0018161906ACF310921902DF91F8
S1130AE0CF910895A1E21A2EAA1BBB1BFD010DC0D4
S1130AF0AA1FBB1FEE1FFF1FA217B307E407F507CA
S1130B0020F0A21BB30BE40BF50B661F771F881FA5
S1130B10991F1A9469F760957095809590959B013B
S1130B20AC01BD01CF010895EE0FFF1F0590F491B4
S10B0B30E02D0994F894FFCFB5
S1130B3825002300012500230002250023000425A5
S1130B4800230008250023001025002300202B0083
S1130B582900012B002900022B002900042B00295D
S1130B6800082B002900102B002900202B00290045
S1130B78402B0029008028002600012800260002B6
S1130B88280026000428002600082800260010282B
S1130B9800260020FF00000000D9001C025F007935
S1090BA8006B00B7000021
S9030000FC
