:100000000C9435000C945D000C945D000C945D0024
:100010000C945D000C945D000C945D000C945D00EC
:100020000C945D000C945D000C945D000C945D00DC
:100030000C945D000C945D000C945D000C945D00CC
:100040000C945F000C945D000C9409020C943B022C
:100050000C945D000C945D000C945D000C945D00AC
:100060000C945D000C945D00610211241FBECFEF63
:10007000D8E0DEBFCDBF11E0A0E0B1E0EEE2F8E0F5
:1000800002C005900D92A238B107D9F722E0A2E88C
:10009000B1E001C01D92AE32B207E1F710E0CAE64E
:1000A000D0E004C02297FE010E941104C836D10797
:1000B000C9F70E9489000C9415040C9400001F924B
:1000C0000F920FB60F9211248F939F93AF93BF930C
:1000D000809183018F5F809383018091840190914F
:1000E0008501A0918601B09187010196A11DB11DE6
:1000F0008093840190938501A0938601B09387013A
:10010000BF91AF919F918F910F900FBE0F901F9055
:100110001895109284011092850110928601109218
:1001200087010E94CC020E942303789426E040E0DD
:1001300052EC61E070E088E891E00E94A7018CE752
:1001400087BD83E084BD8DE085BD81E080936E0036
:10015000C0E280918201909183019923E1F3909113
:1001600083019150909383018F5F87FFF4CF809339
:100170008201E0918801F09189010280F381E02DF4
:100180004CE050E064E671E088E891E009950E9457
:10019000A90385B18C2785B980918201805880930D
:1001A0008201D7CFFC01818D228D90E0805C9F4F32
:1001B000821B91098F7399270895FC01918D828D7F
:1001C000981731F0828DE80FF11D858D90E008952C
:1001D0008FEF9FEF0895FC01918D828D981761F04C
:1001E000828DDF01A80FB11D5D968C91928D9F5F6E
:1001F0009F73928F90E008958FEF9FEF0895FC0119
:10020000848DDF01A80FB11DA35ABF4F2C91848D9F
:1002100090E001968F739927848FA689B7892C93D4
:10022000A089B1898C9180648C93938D848D98136F
:1002300006C00288F389E02D80818F7D8083089538
:10024000CF93DF93EC01888D8823C9F0EA89FB897D
:10025000808185FD05C0A889B9898C9186FD0FC074
:100260000FB607FCF5CF808185FFF2CFA889B98949
:100270008C9185FFEDCFCE010E94FF00E7CFDF918B
:10028000CF910895CF92DF92FF920F931F93CF9358
:10029000DF931F92CDB7DEB76C0181E0D60158968F
:1002A0008C9358975B969C915B975C968C915C972E
:1002B000981307C05096ED91FC915197808185FD70
:1002C0002EC0F601038D10E00F5F1F4F0F73112733
:1002D000F02EF601848DF81211C00FB607FCF9CF8D
:1002E000D6015096ED91FC915197808185FFF1CF19
:1002F000C60169830E94FF006981EBCF838DE80FFF
:10030000F11DE35AFF4F6083D6015B960C935B9718
:100310005296ED91FC915397808180620CC0D6017A
:100320005696ED91FC91579760835096ED91FC9114
:10033000519780818064808381E090E00F90DF910D
:10034000CF911F910F91FF90DF90CF900895BF92B2
:10035000CF92DF92EF92FF92CF93DF93EC016A018D
:100360007B01B22EE889F98982E08083411581EE14
:10037000580761057105A1F060E079E08DE390E038
:10038000A70196010E94ED0321503109410951094D
:100390005695479537952795211580E1380798F0B0
:1003A000E889F989108260E874E88EE190E0A7019D
:1003B00096010E94ED0321503109410951095695DA
:1003C000479537952795EC85FD853083EE85FF852C
:1003D0002083188EEC89FD89B082EA89FB898081AF
:1003E00080618083EA89FB89808188608083EA89D3
:1003F000FB89808180688083EA89FB8980818F7D89
:100400008083DF91CF91FF90EF90DF90CF90BF90EE
:1004100008951F920F920FB60F9211242F938F936E
:100420009F93EF93FF93E0919801F0919901808160
:10043000E0919E01F0919F0182FD12C09081809118
:10044000A1018F5F8F732091A201821751F0E0917B
:10045000A101F0E0E857FE4F958F8093A10101C004
:100460008081FF91EF919F918F912F910F900FBEFF
:100470000F901F9018951F920F920FB60F92112494
:100480002F933F934F935F936F937F938F939F939C
:10049000AF93BF93EF93FF9388E891E00E94FF0032
:1004A000FF91EF91BF91AF919F918F917F916F914C
:1004B0005F914F913F912F910F900FBE0F901F9022
:1004C000189510928B0110928A0188EE93E0A0E0BB
:1004D000B0E080938C0190938D01A0938E01B09336
:1004E0008F0185E791E0909389018093880185ECE5
:1004F00090E0909395018093940184EC90E0909328
:1005000097018093960180EC90E0909399018093FD
:10051000980181EC90E090939B0180939A0182EC8A
:1005200090E090939D0180939C0186EC90E09093E5
:100530009F0180939E011092A1011092A20110923E
:10054000A3011092A4010895CF92DF92EF92FF923F
:100550000F931F93CF93DF936C017A01EB01E60EAB
:10056000F71E00E010E0CE15DF0561F06991D601BD
:10057000ED91FC910190F081E02DC6010995080FE5
:10058000191FF1CFC801DF91CF911F910F91FF90FB
:10059000EF90DF90CF9008958FE385B990E294B902
:1005A00090E398B987B98CE08BB982E78AB908954E
:1005B00095E0899FF0011124E050FF4FA081B181A7
:1005C0008C919481892B8C93089595E0899FF001FB
:1005D0001124E050FF4FA281B3819C91248192238A
:1005E00081E0291380E008950F931F93CF93DF9349
:1005F000F89485E00E94E502082F813011F01FE099
:1006000001C01EE0CFEFDFEF60E085E00E94D8027E
:10061000CC0FDD1F61E085E00E94D80284E00E94DB
:10062000E502813009F4C160115071F7602F85E057
:100630000E94D8027894CE0180959095DF91CF9159
:100640001F910F9108950895CF93C0912A02C0324F
:1006500019F130F4CC23D1F0C03109F461C077C076
:10066000C03309F451C0C03409F45AC0C13209F092
:100670006EC080912B020E94E50280932902C093F4
:100680002602109227021092280252C010922602CF
:1006900081E08093270248C0C0932602109227026F
:1006A0001092280210922902E0918801F0918901AC
:1006B0000280F381E02D44E050E066E272E088E8D9
:1006C00091E0099580912B028130C9F480912D022F
:1006D000813059F038F0823059F08330C1F5F89408
:1006E0002D9A0AC0F8942D9805C0F8942D9804C04E
:1006F000F8942D9A2B9801C02B9A789428C0609179
:100700002D02CF910C94D80280E00E94F402C09395
:10071000260210922702909328028093290208C093
:10072000C0932602109227021092280210922902EA
:10073000E0918801F09189010280F381E02D44E08D
:1007400050E066E272E088E891E0CF910994CF91A1
:10075000089588E891E00E94D2000497DCF088E8D0
:1007600091E00E94EB0080932A0288E891E00E94C9
:10077000EB0080932B0288E891E00E94EB008093CD
:100780002C0288E891E00E94EB0080932D020E94E9
:1007900024030FC088E891E00E94D20018161906C1
:1007A00034F4809125028F5F8093250202C010925D
:1007B000250280912502803208F4089588E891E0AE
:1007C0000E94D200181619062CF488E891E00E94C5
:1007D000EB00F4CF109225020895A1E21A2EAA1B75
:1007E000BB1BFD010DC0AA1FBB1FEE1FFF1FA217E1
:1007F000B307E407F50720F0A21BB30BE40BF50BDE
:10080000661F771F881F991F1A9469F76095709566
:10081000809590959B01AC01BD01CF010895EE0F2D
:0E082000FF1F0590F491E02D0994F894FFCF8E
:10082E0025002300012500230002250023000425B6
:10083E0000230008250023001025002300202B0094
:10084E002900012B002900022B002900042B00296E
:10085E0000082B002900102B002900202B00290056
:10086E00402B0029008028002600012800260002C7
:10087E00280026000428002600082800260010283C
:10088E000026002048656C6C6F20576F726C6420D8
:10089E0000000000004201A402D200EB00DD0020A7
:0208AE00010047
:00000001FF
