S01900004763634170706C69636174696F6E4370702E7372656367
S11300000C9435000C945D000C945D000C945D0020
S11300100C945D000C945D000C945D000C945D00E8
S11300200C945D000C945D000C945D000C945D00D8
S11300300C945D000C945D000C9438030C945D00EA
S11300400C945D000C945D000C9491010C94C90116
S11300500C945D000C945D000C945D000C945D00A8
S11300600C945D000C945D00EF0111241FBECFEFD2
S1130070D8E0DEBFCDBF11E0A0E0B1E0ECE4FAE0EF
S113008002C005900D92A637B107D9F722E0A6E782
S1130090B1E001C01D92A931B207E1F710E0C5E358
S11300A0D0E004C02197FE010E941E05C433D1078D
S11300B0C9F70E940E030C9424050C940000FC0163
S11300C0918D228D892F90E0805C9F4F821B910936
S11300D08F7399270895FC01918D828D981731F0C3
S11300E0828DE80FF11D858D90E008958FEF9FEFCD
S11300F00895FC01918D828D981761F0828DDF0146
S1130100A80FB11D5D968C91928D9F5F9F73928F06
S113011090E008958FEF9FEF0895FC01848DDF0137
S1130120A80FB11DA35ABF4F8C91248D30E02F5FCF
S11301303F4F2F733078332334F421503109206C2E
S11301403F6F2F5F3F4F248FA689B7898C93A08977
S1130150B1898C9180648C93938D848D981306C09F
S11301600288F389E02D80818F7D80830895CF9369
S1130170DF93EC01888D81110FC018C00FB607FC06
S11301800DC0908195FF0AC0A889B9898C9185FF1B
S113019005C0CE010E948D00EA89FB89908195FDFE
S11301A0EDCFA889B9898C9186FFE8CFDF91CF91F3
S11301B008950F931F93CF93DF93FC0181E0808F09
S11301C0938D848D981322C0A089B1898C9185FD6B
S11301D02FC01CC00FB607FC08C0E889F9898081CC
S11301E085FF03C0CE010E948D009C8D091791F3F9
S11301F08B8DFE01E80FF11DE35AFF4F10830B8F27
S1130200EA89FB898081806280831BC0238D30E072
S11302102F5F3F4F2F733078332334F4215031094B
S1130220206C3F6F2F5F3F4F162FEF01022FDDCF62
S1130230A689B7896C930088F189E02D8081806458
S1130240808381E090E0DF91CF911F910F91089519
S1130250BF92CF92DF92EF92FF920F931F93CF93AF
S1130260DF93EC016A017B01B22EE889F98982E00F
S113027080834115514E61057105B1F060E079E06C
S11302808DE390E0A70196010E94FC0489019A0184
S113029001501109210931093695279517950795BC
S11302A0011580E11807A8F0E889F989108260E84F
S11302B074E88EE190E0A70196010E94FC04DA0143
S11302C0C9010197A109B109B695A7959795879595
S11302D08C01EC85FD851083EE85FF850083188EE7
S11302E0EC89FD89B082EA89FB8980818061808301
S11302F0EA89FB89808188608083EA89FB8980811F
S113030080688083EA89FB8980818F7D8083DF9187
S1130310CF911F910F91FF90EF90DF90CF90BF90FE
S113032008951F920F920FB60F9211242F938F935B
S11303309F93AF93BF93EF93FF93E0918601F09166
S11303408701808182FD14C0E6E7F1E0A689B789C0
S11303502C91818D8F5F8F73928D891771F0DF01DE
S1130360E18DF0E0EA58FE4F258F59968C9305C035
S1130370E0918C01F0918D018081FF91EF91BF910B
S1130380AF919F918F912F910F900FBE0F901F905F
S113039018951F920F920FB60F9211242F933F932B
S11303A04F935F936F937F938F939F93AF93BF9379
S11303B0EF93FF9386E791E00E948D00FF91EF9108
S11303C0BF91AF919F918F917F916F915F914F9169
S11303D03F912F910F900FBE0F901F901895E6E755
S11303E0F1E01382128288EE93E0A0E0B0E084830F
S11303F09583A683B78389E691E09183808385EC16
S113040090E09587848784EC90E09787868780ECDA
S113041090E0918B808B81EC90E0938B828B82ECCB
S113042090E0958B848B86EC90E0978B868B118E75
S1130430128E138E148E0895CF92DF92EF92FF9254
S11304400F931F93CF93DF9341155105B1F08C01A6
S1130450E62EF72EEA01C12CD12CD7016D917D0136
S1130460D801ED91FC910190F081E02DC80109952E
S1130470C80ED91E219789F702C0C12CD12CC60100
S1130480DF91CF911F910F91FF90EF90DF90CF906C
S113049008959FE395B914B829E328B997B99CE75F
S11304A09BB990E79AB9823030F484B18A6284B9F6
S11304B02D9A2B9A299A08952B9A299A5D9A2D9A06
S11304C0439A5C9A5E9A0895613091F490E0FC013D
S11304D0EE0FFF1FEE0FFF1F8E0F9F1FFC01E0505A
S11304E0FF4FA081B1819C918481892B8C930895C5
S11304F0611112C090E0FC01EE0FFF1FEE0FFF1F11
S11305008E0F9F1FFC01E050FF4FA081B1819C9191
S11305108481809589238C93089590E0FC01EE0FEB
S1130520FF1FEE0FFF1F8E0F9F1FFC01E050FF4FB8
S1130530A281B3819C912481922381E0291380E0DC
S113054008958EBD0DB407FCFDCF8EB508950F93AD
S11305501F93CF93DF93F89485E00E948D02D82FE8
S1130560813029F5CEE024C060E085E00E94640279
S11305708AE08A95F1F700C0000F111F61E085E061
S11305800E9464028AE08A95F1F700C084E00E9428
S11305908D02813009F40160C15031F76D2F85E07F
S11305A00E9464027894C8018095909504C0CFE0BD
S11305B00FEF1FEFD9CFDF91CF911F910F910895C6
S11305C00E94490280E00E94A70208951F93CF93DE
S11305D0DF93182F892F61110FC02A9A0E94A1025C
S11305E0C82FD0E0DC2FCC27812F0E94A1029E01CE
S11305F0282BC9012A980EC0449A0E94A102C82F30
S1130600D0E0DC2FCC27812F0E94A1029E01282B51
S1130610C9014498DF91CF911F910895F89414BCB7
S113062015BC16BC89EF87BD84B5826084BD85B5D1
S1130630836085BDEEE6F0E08081826080837894FB
S11306400E94690326E040E052EC61E070E086E736
S113065091E00E94280107C0809113028150809389
S113066013020E94B604809113028111F5CFFBCFCF
S11306701F920F920FB60F9211248F938091130241
S11306808F5F809313028F910F900FBE0F901F9076
S11306901895CF93DF9300D000D0CDB7DEB7898310
S11306A06A834B832C83E0917601F0917701028079
S11306B0F381E02D44E050E0BE016F5F7F4F86E799
S11306C091E009950F900F900F900F90DF91CF91CB
S11306D00895E5E1F2E010821182128213820895F6
S11306E0CF93DF931F92CDB7DEB719825C98EFE802
S11306F0F1E03197F1F700C000009981981780F478
S11307005E985C98F0E2FA95F1F75E9A5C9A90E64E
S11307109A95F1F799819F5F99839981981780F34E
S11307205C9A0F90DF91CF910895449887EC90E004
S11307300197F1F700C00000449A08955C985D9811
S11307408FE891E00197F1F700C0000082E05E9A23
S1130750EFE8F1E03197F1F700C00000299AEFE8E3
S1130760F1E03197F1F700C000005E98EFE8F1E0A6
S11307703197F1F700C000002998EFE8F1E03197D4
S1130780F1F700C00000815011F75C9A5D9A08955A
S11307905D982FEF89EF90E0215080409040E1F781
S11307A000C000005D9A0895811102C04098089528
S11307B0409A089520E040E061E080E00E9449030F
S11307C0089580911602809364010E94E00220E063
S11307D040E061E080E10E9449030895E5E1F2E030
S11307E081816381909164019F3FF1F0811116C072
S11307F0F894613049F028F0623049F0633051F0E8
S11308000BC02D982B9808C02D982B9A05C02D9AB3
S11308102B9802C02D9A2B9A789402C00E946402ED
S1130820809164018F3F39F420E040E060E080E291
S11308300E944903089520E040E061E080E20E94C4
S11308404903089580911602909164019F3F39F401
S113085020E0482F60E081E20E94490308950E944D
S11308608D02282F4091160261E081E20E94490323
S11308700895E5E1F2E02281838161819091640130
S11308809F3FA1F0923020F480E00E94A7020AC0AA
S11308909058923028F490E0922B0E94E60202C015
S11308A080E090E0492F282F61E003C020E040E081
S11308B060E080E30E944903089520E040E061E0A5
S11308C080E60E9449030E945C020895809115020B
S11308D08132C1F038F4803179F0803281F08111B5
S11308E044C007C08034A1F08036E9F18033E9F5D3
S11308F00CC00E94DA0308950E94E10308950E9447
S1130900EE0308950E94220408950E943904089574
S1130910E5E1F2E0228183819181933459F028F456
S1130920913491F0923449F015C0943449F09534DF
S113093071F010C00E94C8030FC00E949E030CC037
S1130940822F0E94D40308C00E94700305C00E9435
S1130950950302C0419A429A20E040E061E080E4BD
S11309600E94490308950E945D040895CF93DF9384
S113097086E791E00E945F000497CCF086E791E05F
S11309800E947900C5E1D2E0888386E791E00E9465
S11309907900898386E791E00E9479008A8386E75B
S11309A091E00E9479008B830E94660410C086E760
S11309B091E00E945F001816190634F48091140225
S11309C08F5F8093140203C01092140212C08091AE
S11309D01402803228F40DC086E791E00E94790069
S11309E086E791E00E945F0018161906ACF3109296
S11309F01402DF91CF910895A1E21A2EAA1BBB1B0A
S1130A00FD010DC0AA1FBB1FEE1FFF1FA217B307D6
S1130A10E407F50720F0A21BB30BE40BF50B661FEC
S1130A20771F881F991F1A9469F7609570958095B0
S1130A3090959B01AC01BD01CF010895EE0FFF1FFE
S10F0A400590F491E02D0994F894FFCF88
S1130A4C2500230001250023000225002300042592
S1130A5C00230008250023001025002300202B0070
S1130A6C2900012B002900022B002900042B00294A
S1130A7C00082B002900102B002900202B00290032
S1130A8C402B0029008028002600012800260002A3
S1130A9C2800260004280026000828002600102818
S1130AAC00260020FF00000000D9001C025F007922
S1090ABC006B00B700000E
S9030000FC
